:100000000C942A000C94B7020C94EC020C9421037B
:100010000C94BD050C9481050C943C000C943C00A0
:100020000C943C000C943C000C944B050C940A0579
:100030000C943C000C943C000C943C000C943C0050
:100040000C943C000C943C000C943C000C943C0040
:100050000C943C0011241FBECFE5D8E0DEBFCDBF1D
:1000600020E0A0E6B0E001C01D92AA37B207E1F798
:100070000E9479070C94BC080C940000411138C010
:10008000813091F028F08230D9F0833029F1089541
:100090002AB381E090E002C0880F991F6A95E2F7C9
:1000A000809582238ABB089527B381E090E002C047
:1000B000880F991F6A95E2F78095822387BB089580
:1000C00024B381E090E002C0880F991F6A95E2F79F
:1000D0008095822384BB089521B381E090E002C023
:1000E000880F991F6A95E2F78095822381BB089556
:1000F000413099F5813089F028F08230C9F08330A1
:1001000011F108952AB381E090E002C0880F991F91
:100110006A95E2F7822B8ABB089527B381E090E0CD
:1001200002C0880F991F6A95E2F7822B87BB08955A
:1001300024B381E090E002C0880F991F6A95E2F72E
:10014000822B84BB089521B381E090E002C0880F28
:10015000991F6A95E2F7822B81BB0895813091F057
:1001600028F08230D9F0833029F12FC09AB321E0F2
:1001700030E0062E02C0220F331F0A94E2F7292B2B
:100180002ABB23C097B321E030E0062E02C0220F25
:10019000331F0A94E2F7292B27BB17C094B321E041
:1001A00030E0062E02C0220F331F0A94E2F7292BFB
:1001B00024BB0BC091B321E030E0062E02C0220F19
:1001C000331F0A94E2F7292B21BB813089F028F0F4
:1001D0008230C9F0833011F108952BB381E090E0B3
:1001E00002C0880F991F6A95E2F7822B8BBB089596
:1001F00028B381E090E002C0880F991F6A95E2F76A
:10020000822B88BB089525B381E090E002C0880F5F
:10021000991F6A95E2F7822B85BB089522B381E08E
:1002200090E002C0880F991F6A95E2F7822B82BB8B
:1002300008954130A1F5813089F028F08230C9F06D
:10024000833011F108952BB381E090E002C0880F54
:10025000991F6A95E2F7822B8BBB089528B381E042
:1002600090E002C0880F991F6A95E2F7822B88BB45
:10027000089525B381E090E002C0880F991F6A9528
:10028000E2F7822B85BB089522B381E090E002C0A3
:10029000880F991F6A95E2F7822B82BB089541115E
:1002A00037C0813091F028F08230D9F0833029F1C5
:1002B00008952BB381E090E002C0880F991F6A95E2
:1002C000E2F7809582238BBB089528B381E090E00C
:1002D00002C0880F991F6A95E2F78095822388BB38
:1002E000089525B381E090E002C0880F991F6A95B8
:1002F000E2F78095822385BB089522B381E090E0E8
:1003000002C0880F991F6A95E2F78095822382BB0D
:100310000895813089F028F08230C9F0833011F1DE
:1003200008952BB381E090E002C0880F991F6A9571
:10033000E2F782278BBB089528B381E090E002C0EA
:10034000880F991F6A95E2F7822788BB089525B325
:1003500081E090E002C0880F991F6A95E2F782273A
:1003600085BB089522B381E090E002C0880F991FF9
:100370006A95E2F7822782BB0895813089F028F0E0
:100380008230C9F0833011F1089589B390E002C042
:10039000959587956A95E2F78170FA0180830895B3
:1003A00086B390E002C0959587956A95E2F78170D3
:1003B000FA018083089583B390E002C095958795F4
:1003C0006A95E2F78170FA018083089580B390E026
:1003D00002C0959587956A95E2F78170FA0180834E
:1003E00008958FB780688FBF0895813009F447C0A2
:1003F00020F0823009F485C0A9C0623001F128F4F0
:10040000662349F0613089F036C0643081F108F12B
:10041000653049F130C085B78D7F85BF85B78E7F48
:1004200085BF8BB780648BBF089585B7816085BF1A
:1004300085B78D7F85BF8BB780648BBF089585B7E7
:100440008E7F85BF85B7826085BF8BB780648BBF89
:10045000089585B7826085BF85B7816085BF8BB7FA
:1004600080648BBF08958BB78F7B8BBF08958BB74C
:1004700080648BBF08958BB78F7B8BBF08956230EC
:1004800001F128F4662349F0613089F036C0643008
:1004900081F108F1653049F130C085B7877F85BFAC
:1004A00085B78B7F85BF8BB780688BBF089585B775
:1004B000846085BF85B7877F85BF8BB780688BBF1A
:1004C000089585B78B7F85BF85B7886085BF8BB75B
:1004D00080688BBF089585B7846085BF85B78860C5
:1004E00085BF8BB780688BBF08958BB78F778BBF25
:1004F00008958BB780688BBF08958BB78F778BBFBC
:100500000895633081F018F4623031F01BC064301C
:10051000A9F0653079F016C084B78F7B84BF8BB7A4
:1005200080628BBF089584B7816084BF8BB780627F
:100530008BBF08958BB78F7D8BBF08958BB780627B
:100540008BBF08958BB78F7D8BBF08958BB78F7B43
:100550008BBF8BB78F778BBF8BB78F7D8BBF08958A
:10056000009721F0909365008093640008951F9296
:100570000F920FB60F9211242F933F934F935F93D7
:100580006F937F938F939F93AF93BF93EF93FF935B
:100590008091640090916500892B69F065E080E0AE
:1005A0000E94F501E0916400F0916500099564E016
:1005B00080E00E94F501FF91EF91BF91AF919F9173
:1005C0008F917F916F915F914F913F912F910F90FC
:1005D0000FBE0F901F9018951F920F920FB60F929B
:1005E00011242F933F934F935F936F937F938F9338
:1005F0009F93AF93BF93EF93FF938091620090918D
:100600006300892B69F065E081E00E94F501E091CB
:100610006200F0916300099564E081E00E94F501B9
:10062000FF91EF91BF91AF919F918F917F916F91CA
:100630005F914F913F912F910F900FBE0F901F90A0
:1006400018951F920F920FB60F9211242F933F937C
:100650004F935F936F937F938F939F93AF93BF93CA
:10066000EF93FF938091600090916100892B69F076
:1006700065E082E00E94F501E0916000F091610088
:10068000099564E082E00E94F501FF91EF91BF912E
:10069000AF919F918F917F916F915F914F913F911A
:1006A0002F910F900FBE0F901F9018950F938230CF
:1006B000C9F018F4813031F023C0833059F0843010
:1006C000C1F01EC093B79F7B93BF93B7977F93BF33
:1006D0006CBF1CC093B79F7B93BF93B7986093BFC9
:1006E0006CBF14C093B7906493BF93B7977F93BFC9
:1006F0000DC093B7906493BF93B7986093BF06C043
:1007000093B79F7B93BF93B7977F93BF423019F006
:10071000433029F008C099B7926099BF07C099B7D4
:100720009D7F99BF03C099B7926099BF222319F0AA
:10073000213029F008C099B7916099BF07C099B7D7
:100740009E7F99BF03C099B7916099BF823011F025
:10075000843031F483B78F7E83BF83B7806283BFD9
:100760000330F9F028F4002341F0013081F037C064
:10077000053009F1063049F132C083B7816083BF8B
:1007800083B78D7F83BF83B78B7F83BF31C083B730
:100790008E7F83BF83B7826083BF83B78B7F83BF26
:1007A00027C083B7816083BF83B7826083BF83B76D
:1007B0008B7F83BF1DC083B78E7F83BF83B78D7F41
:1007C00083BF83B7846083BF13C083B7816083BF57
:1007D00083B78D7F83BF83B7846083BF09C083B72E
:1007E0008E7F83BF83B78D7F83BF83B78B7F83BFAC
:1007F0000F9108950F938230C9F018F4813031F0D1
:1008000023C0833059F08430C1F01EC095B5977F66
:1008100095BD95B59F7B95BD63BD1CC095B5977F74
:1008200095BD95B5906495BD63BD14C095B59860B0
:1008300095BD95B59F7B95BD0DC095B5986095BD4F
:1008400095B5906495BD06C095B5977F95BD95B556
:100850009F7B95BD423019F0433029F008C099B70D
:10086000906899BF07C099B79F7799BF03C099B7A0
:100870009F7799BF222319F0213029F008C099B73A
:10088000906499BF07C099B79F7B99BF03C099B780
:100890009F7B99BF823011F0843031F483B78F7E13
:1008A00083BF83B7806283BF023009F128F400233D
:1008B00051F0013091F043C0053069F10630A9F1E3
:1008C0000330E9F51EC085B58B7F85BD85B58D7F6D
:1008D00085BD85B5816085BD3BC085B58B7F85BDF8
:1008E00085B5826085BD85B58E7F85BD31C085B5F6
:1008F0008B7F85BD85B5826085BD85B5816085BDF1
:1009000027C085B5846085BD85B58D7F85BD85B5DE
:100910008E7F85BD1DC085B5846085BD85B582602F
:1009200085BD85B58E7F85BD13C085B5846085BDC9
:1009300085B5826085BD85B5816085BD09C085B5F9
:100940008B7F85BD85B58D7F85BD85B58E7F85BD4A
:100950000F910895CF92DF92EF92FF920F93BC0117
:1009600080E090E00E941F082FE632E143E85EE35A
:100970000E947E070E94F0076B017C018FEFC81672
:10098000D10409F070F406E021E043E06C2D83E02F
:100990000E94FA0308B607FEFDCF88B7806888BFBB
:1009A00033C09601A1E8B0E80E94AD08AC01440F45
:1009B000452F441F550B5195CA0101969093740021
:1009C000809373002FEF249FC001259F900D112469
:1009D000C81AD90A6FEF6C0D06E021E043E081E010
:1009E0000E94FA030BC008B606FE08C00197909358
:1009F00074008093730088B7806488BF809173000F
:100A000090917400009779F70F91FF90EF90DF902D
:100A1000CF9008951F920F920FB60F9211240F934B
:100A20002F933F934F935F936F937F938F939F93F6
:100A3000AF93BF93EF93FF938091760090917700EF
:100A40000197909377008093760020916C0030910D
:100A50006D00232B71F0892B61F400E021E043E06D
:100A600060E081E00E945603E0916C00F0916D001F
:100A70000995FF91EF91BF91AF919F918F917F91D8
:100A80006F915F914F913F912F910F910F900FBEFA
:100A90000F901F9018951F920F920FB60F9211246E
:100AA0000F932F933F934F935F936F937F938F9306
:100AB0009F93AF93BF93EF93FF9380916A009091C0
:100AC0006B00892B61F000E021E043E060E081E011
:100AD0000E945603E0916A00F0916B000995FF9126
:100AE000EF91BF91AF919F918F917F916F915F91A6
:100AF0004F913F912F910F910F900FBE0F901F902C
:100B000018951F920F920FB60F9211240F932F93E7
:100B10003F934F935F936F937F938F939F93AF9385
:100B2000BF93EF93FF9380917300909174000197AE
:100B30009093740080937300209168003091690055
:100B4000232B49F0892B39F400E021E043E060E0F9
:100B500081E00E94FA03FF91EF91BF91AF919F91C5
:100B60008F917F916F915F914F913F912F910F9155
:100B70000F900FBE0F901F9018951F920F920FB6F7
:100B80000F9211240F932F933F934F935F936F9383
:100B90007F938F939F93AF93BF93EF93FF93E091D6
:100BA0006600F0916700309741F0099500E021E080
:100BB00043E060E081E00E94FA03FF91EF91BF9172
:100BC000AF919F918F917F916F915F914F913F91E5
:100BD0002F910F910F900FBE0F901F90189541E02D
:100BE00062E081E00E94190141E062E080E00E9441
:100BF0003E0041E060E080E00E943E0041E061E0B4
:100C000080E00E943E0041E062E081E00E943E0000
:100C100041E060E081E00E943E0041E061E081E06F
:100C20000E943E000895CF93DF93EC0140E061E025
:100C300080E00E94190140E061E081E00E9419011A
:100C40009E013695279536952795A5ECB0E20E9432
:100C5000AD08EC01D295C295CF70CD27DF70CD27BE
:100C60001AC084EF91E00E94AA0480916F0088234B
:100C700021F061E081E00E94890161E080E00E9452
:100C8000890180916E00882329F0109270001092E3
:100C90006E0003C02197209721F740E061E080E0DB
:100CA0000E94190140E061E081E00E941901DF919A
:100CB000CF9108951F93CF93DF931F92CDB7DEB7E7
:100CC000198288EE93E00E94AA04AE014F5F5F4F45
:100CD00062E083E00E94BD018981882309F49FC0FE
:100CE00080917000833049F540E062E081E00E942D
:100CF000190141E060E081E00E94190188E893E178
:100D00000E94AA0440E062E080E00E94190111E024
:100D100010936F0088E893E10E94130610926F0011
:100D200040E060E081E00E94190141E062E081E082
:100D30000E94190110936E0072C08130D9F540E015
:100D400060E080E00E94190111E010936F0088E8D4
:100D500093E10E94130610926F0040E062E081E090
:100D60000E94190141E060E081E00E94190141E028
:100D700062E080E00E94190188E893E10E94AA04E1
:100D800040E062E080E00E94190110936F0088E863
:100D900093E10E94130610926F0040E060E081E052
:100DA0000E94190141E062E081E00E941901109364
:100DB0006E0035C011E010936F0088E893E10E9447
:100DC000130610926F0040E062E081E00E9419017A
:100DD00041E060E081E00E94190141E062E080E0D2
:100DE0000E94190188E893E10E94AA0440E062E0B1
:100DF00080E00E94190110936F0088E893E10E943F
:100E0000130610926F0040E060E081E00E9419013B
:100E100041E062E081E00E94190110936E000F90A2
:100E2000DF91CF911F910895809170008130B1F0D2
:100E300018F0823029F136C081E08093700041E0E3
:100E400060E080E00E94190188E893E10E94AA0412
:100E500040E060E080E00E941901089582E0809304
:100E6000700041E061E080E00E94190188E893E1B0
:100E70000E94130640E061E080E00E94190108959D
:100E800083E08093700041E062E080E00E941901FD
:100E900088E893E10E94AA0440E062E080E00E94BA
:100EA000190108951092700041E061E080E00E9415
:100EB000190188E893E10E94130640E061E080E0B8
:100EC0000E941901089562E083E00E94AE008AE565
:100ED00096E00E94B00262E080E00E94F501089571
:100EE0000E9463070E94EF050E94F1010E9414070F
:100EF000FDCF0E94700780E090E008950E94920765
:100F00000C9473080E946C0858F00E94650840F029
:100F100029F45F3F29F00C945C0851110C94A70848
:100F20000C9462080E94840868F39923B1F3552356
:100F300091F3951B550BBB27AA27621773078407EC
:100F400038F09F5F5F4F220F331F441FAA1FA9F382
:100F500035D00E2E3AF0E0E832D091505040E69570
:100F6000001CCAF72BD0FE2F29D0660F771F881FD1
:100F7000BB1F261737074807AB07B0E809F0BB0BC4
:100F8000802DBF01FF2793585F4F3AF09E3F5105D8
:100F900078F00C945C080C94A7085F3FE4F3983E4B
:100FA000D4F3869577956795B795F7959F5FC9F7C1
:100FB000880F911D9695879597F90895E1E0660F42
:100FC000771F881FBB1F621773078407BA0720F0BB
:100FD000621B730B840BBA0BEE1F88F7E095089524
:100FE0000E948C0888F09F5798F0B92F9927B75125
:100FF000B0F0E1F0660F771F881F991F1AF0BA95BD
:10100000C9F714C0B13091F00E94A608B1E008956C
:101010000C94A608672F782F8827B85F39F0B93F5E
:10102000CCF3869577956795B395D9F73EF490956F
:101030008095709561957F4F8F4F9F4F0895E894ED
:1010400009C097FB3EF490958095709561957F4F10
:101050008F4F9F4F9923A9F0F92F96E9BB279395BE
:10106000F695879577956795B795F111F8CFFAF4CE
:10107000BB0F11F460FF1BC06F5F7F4F8F4F9F4FFF
:1010800016C0882311F096E911C0772321F09EE85D
:10109000872F762F05C0662371F096E8862F70E0C3
:1010A00060E02AF09A95660F771F881FDAF7880F9D
:1010B0009695879597F9089597F99F6780E870E06E
:1010C00060E008959FEF80EC089500240A941616BE
:1010D000170618060906089500240A941216130626
:1010E000140605060895092E0394000C11F48823B4
:1010F00052F0BB0F40F4BF2B11F460FF04C06F5FD0
:101100007F4F8F4F9F4F089557FD9058440F551FA5
:1011100059F05F3F71F04795880F97FB991F61F079
:101120009F3F79F087950895121613061406551FF0
:10113000F2CF4695F1DF08C0161617061806991F5C
:10114000F1CF86957105610508940895E894BB2751
:1011500066277727CB0197F90895A29FB001B39F27
:10116000C001A39F700D811D1124911DB29F700DB0
:0C117000811D1124911D0895F894FFCFFB
:00000001FF
